{
  "contractName": "HelloWorld",
  "abi": [
    {
      "anonymous": false,
      "inputs": [
        {
          "indexed": false,
          "internalType": "string",
          "name": "",
          "type": "string"
        }
      ],
      "name": "Greeted",
      "type": "event"
    },
    {
      "inputs": [],
      "name": "owner",
      "outputs": [
        {
          "internalType": "address payable",
          "name": "",
          "type": "address"
        }
      ],
      "stateMutability": "view",
      "type": "function",
      "constant": true
    },
    {
      "inputs": [
        {
          "internalType": "address",
          "name": "ownerAddress",
          "type": "address"
        }
      ],
      "name": "initialize",
      "outputs": [],
      "stateMutability": "nonpayable",
      "type": "function"
    },
    {
      "inputs": [
        {
          "internalType": "string",
          "name": "name",
          "type": "string"
        }
      ],
      "name": "setLastName",
      "outputs": [],
      "stateMutability": "nonpayable",
      "type": "function"
    },
    {
      "inputs": [],
      "name": "getLastName",
      "outputs": [
        {
          "internalType": "string",
          "name": "name",
          "type": "string"
        }
      ],
      "stateMutability": "view",
      "type": "function",
      "constant": true
    },
    {
      "inputs": [
        {
          "internalType": "string",
          "name": "name",
          "type": "string"
        }
      ],
      "name": "greet",
      "outputs": [
        {
          "internalType": "string",
          "name": "greetingMessage",
          "type": "string"
        },
        {
          "internalType": "string",
          "name": "greetedName",
          "type": "string"
        }
      ],
      "stateMutability": "nonpayable",
      "type": "function"
    }
  ],
  "bytecode": "0x608060405234801561001057600080fd5b50610796806100206000396000f3fe608060405234801561001057600080fd5b5060043610610073577c010000000000000000000000000000000000000000000000000000000060003504636b10928281146100785780638da5cb5b14610096578063932754f9146100db578063c4d66de8146100f0578063ead710c414610103575b600080fd5b610080610124565b60405161008d919061054d565b60405180910390f35b6002546100b69073ffffffffffffffffffffffffffffffffffffffff1681565b60405173ffffffffffffffffffffffffffffffffffffffff909116815260200161008d565b6100ee6100e9366004610596565b6101b6565b005b6100ee6100fe366004610647565b61030e565b610116610111366004610596565b6103eb565b60405161008d92919061067d565b606060018054610133906106ab565b80601f016020809104026020016040519081016040528092919081815260200182805461015f906106ab565b80156101ac5780601f10610181576101008083540402835291602001916101ac565b820191906000526020600020905b81548152906001019060200180831161018f57829003601f168201915b5050505050905090565b6000815111610226576040517f08c379a000000000000000000000000000000000000000000000000000000000815260206004820152600a60248201527f454d5054595f4e414d450000000000000000000000000000000000000000000060448201526064015b60405180910390fd5b6040517f667269657a6100000000000000000000000000000000000000000000000000006020820152602601604051602081830303815290604052805190602001208160405160200161027991906106ff565b6040516020818303038152906040528051906020012014156102f7576040517f08c379a000000000000000000000000000000000000000000000000000000000815260206004820152601660248201527f465249455a415f49535f4e4f545f57454c434f4d454400000000000000000000604482015260640161021d565b805161030a906001906020840190610458565b5050565b60005460ff16156103a1576040517f08c379a000000000000000000000000000000000000000000000000000000000815260206004820152602560248201527f434f4e54524143545f4841535f414c52454144595f4245454e5f494e4954494160448201527f4c495a4544000000000000000000000000000000000000000000000000000000606482015260840161021d565b6000805460ff191660011790556002805473ffffffffffffffffffffffffffffffffffffffff90921673ffffffffffffffffffffffffffffffffffffffff19909216919091179055565b606080600083604051602001610401919061071b565b604051602081830303815290604052905061041b846101b6565b7f86c72623bfb28b1853210aea9821352c090fab6c4dad5b846cbff870467aa3688460405161044a919061054d565b60405180910390a193915050565b828054610464906106ab565b90600052602060002090601f01602090048101928261048657600085556104cc565b82601f1061049f57805160ff19168380011785556104cc565b828001600101855582156104cc579182015b828111156104cc5782518255916020019190600101906104b1565b506104d89291506104dc565b5090565b5b808211156104d857600081556001016104dd565b60005b8381101561050c5781810151838201526020016104f4565b8381111561051b576000848401525b50505050565b600081518084526105398160208601602086016104f1565b601f01601f19169290920160200192915050565b6020815260006105606020830184610521565b9392505050565b7f4e487b7100000000000000000000000000000000000000000000000000000000600052604160045260246000fd5b6000602082840312156105a857600080fd5b813567ffffffffffffffff808211156105c057600080fd5b818401915084601f8301126105d457600080fd5b8135818111156105e6576105e6610567565b604051601f8201601f19908116603f0116810190838211818310171561060e5761060e610567565b8160405282815287602084870101111561062757600080fd5b826020860160208301376000928101602001929092525095945050505050565b60006020828403121561065957600080fd5b813573ffffffffffffffffffffffffffffffffffffffff8116811461056057600080fd5b6040815260006106906040830185610521565b82810360208401526106a28185610521565b95945050505050565b6002810460018216806106bf57607f821691505b602082108114156106f9577f4e487b7100000000000000000000000000000000000000000000000000000000600052602260045260246000fd5b50919050565b600082516107118184602087016104f1565b9190910192915050565b7f48656c6c6f2000000000000000000000000000000000000000000000000000008152600082516107538160068501602087016104f1565b919091016006019291505056fea2646970667358221220370042979b5dc61d4fc17bb35a61f4e88073b0c329e5f8e857dd0dba5af1420564736f6c634300080a0033",
  "immutableReferences": {},
  "source": "// SPDX-License-Identifier: MIT\npragma solidity >=0.4.22 <0.9.0;\n\ncontract HelloWorld {\n  bool private initialized;\n\n  string private lastName;\n  address payable public owner;\n\n  event Greeted(string);\n\n\n  function initialize(address ownerAddress) public {\n    require(!initialized, \"CONTRACT_HAS_ALREADY_BEEN_INITIALIZED\");\n    initialized = true;\n\n    owner = payable(ownerAddress);\n  }\n\n  function setLastName(string memory name) public {\n    require(bytes(name).length > 0, \"EMPTY_NAME\");\n\n    if (keccak256(abi.encodePacked(name)) == keccak256(abi.encodePacked(\"frieza\"))) {\n      revert(\"FRIEZA_IS_NOT_WELCOMED\");\n    }\n\n    lastName = name;\n  }\n\n  function getLastName() public view returns (string memory name) {\n    return lastName;\n  }\n\n  function greet(string memory name) public returns (string memory greetingMessage, string memory greetedName) {\n    string memory greeting = string(abi.encodePacked(\"Hello \", name));\n    setLastName(name);\n    emit Greeted(name);\n    return (greeting, name);\n  }\n}\n",
  "sourcePath": "/home/runner/work/deploy-upgradable-smartcontract-to-blockchain/deploy-upgradable-smartcontract-to-blockchain/contracts/HelloWorld.sol",
  "compiler": {
    "name": "solc",
    "version": "0.8.10+commit.fc410830.Emscripten.clang"
  },
  "schemaVersion": "3.4.3",
  "updatedAt": "2021-11-22T12:11:29.853Z",
  "networkType": "ethereum",
  "devdoc": {
    "kind": "dev",
    "methods": {},
    "version": 1
  },
  "userdoc": {
    "kind": "user",
    "methods": {},
    "version": 1
  }
}